:100000000C944C010C947D010C947D010C947D01A9
:100010000C947D010C947D010C947D010C947D0168
:100020000C947D010C947D010C947D010C947D0158
:100030000C947D010C947D010C947D010C947D0148
:100040000C947D010C947D010C947D010C947D0138
:100050000C947D010C947D010C947D010C94AE0DEB
:100060000C947D010C94220E0C94F80D0C947D01DF
:100070000C947D010C947D010C947D010C947D0108
:100080000C947D010C947D010C947D010C947D01F8
:100090000C947D010C947D010C947D010C947D01E8
:1000A0000C947D010C947D010C947D010C947D01D8
:1000B0000C947D010C947D010C947D010C947D01C8
:1000C0000C947D010C947D010C947D010C947D01B8
:1000D0000C947D010C947D010C947D010C947D01A8
:1000E0000C947D010C94CA010C94670F0C94C60209
:1000F0000C9413030C946C020C945D020C948E020D
:100100000C9480020C94F3010C94CE010C94C60163
:100110000C94DB010C94F7010C94FB010C9430025D
:100120000C94E9010C94ED010C94D2010C94D501CE
:100130000C94B4010C94DF010C9405020C940102A0
:100140000C94AF010C94E5010000803FCDCCCC3D78
:100150006F12833A95BFD6337D1D9026B3CE010C26
:1001600000002100240027002A002D003000330069
:1001700001010000040107010A010000220025001E
:1001800028002B002E003100340002010000050180
:1001900008010B0105050505070508080808020206
:1001A00002020A0A08080404040401010101010111
:1001B00001010303030303030303040707070C0CF4
:1001C0000C0C0C0C0C0C02020202060606060606BB
:1001D00006060B0B0B0B0B0B0B0B01021020200860
:1001E0000810204010204080020102010804020192
:1001F0000102040810204080804020100804020101
:100200008004020180402010080402010804020159
:1002100001020408102040800102040810204080E0
:1002200000000A0B02090C0D0E0807030401000070
:1002300000000000000000000000000000000000BE
:10024000000000000000000000000000121110007B
:10025000000000000000000000000000000000009E
:10026000000000000000000020410000C8420040E3
:100270001C4620BCBE4CCA1B0E5AAEC59D74CDCCCC
:10028000CC3D0AD7233C17B7D13877CC2B32959584
:10029000E6241FB14F0A670F11241FBECFEFD1E232
:1002A000DEBFCDBF00E00CBF23E0ACEAB2E001C08E
:1002B0001D92A635B207E1F712E0A0E0B2E0E8E750
:1002C000F3E200E00BBF02C007900D92AC3AB10719
:1002D000D9F711E0CCE4D1E000E006C02197010994
:1002E000802FFE010E940811CB34D10780E008075F
:1002F000A9F70E94580E0C94BA110C940000282FF4
:1003000030E0F901E05EFD4F9491F901E652FE4FB5
:1003100044912C563E4FF9012491222309F435C013
:10032000992311F191509231F8F4E92FF0E08827E8
:10033000E356FE4F8F4F0C940811CE01D201AF014E
:10034000C601CA01B401D501DB01DF01E501E90104
:10035000ED01F301F701B401FB01010205028091F7
:1003600080008F7780938000E22FF0E0EE0FFF1F78
:10037000E658FE4FA591B4918FB7F894EC916111B6
:1003800048C040954E234C938FBF089580918000C4
:100390008F7DE8CF80918000877FE4CF84B58F7711
:1003A00084BDE2CF84B58F7DFBCF8091B0008F7785
:1003B0008093B000D9CF8091B0008F7DF9CF80912C
:1003C00090008F7780939000CFCF809190008F7DA9
:1003D000F9CF80919000877FF5CF8091A0008F7733
:1003E0008093A000C1CF8091A0008F7DF9CF809134
:1003F000A000877FF5CF809120018F778093200127
:10040000B3CF809120018F7DF9CF80912001877F2C
:10041000F5CF4E2BB8CF3FB7F8948091B5029091AD
:10042000B602A091B702B091B80226B5A89B05C04C
:100430002F3F19F00196A11DB11D3FBFBA2FA92F63
:10044000982F8827BC01CD01620F711D811D911D60
:1004500042E0660F771F881F991F4A95D1F70895CC
:10046000AF92BF92CF92DF92EF92FF920F931F93C2
:10047000CF93DF936C017B018B01040F151FEB0100
:100480005E01AE18BF08C017D10759F06991D601B7
:10049000ED91FC910190F081E02DC6011995892B19
:1004A00079F7C501DF91CF911F910F91FF90EF90E8
:1004B000DF90CF90BF90AF900895FC01538D448D95
:1004C000252F30E0842F90E0821B930B541710F0FF
:1004D000CF96089501970895FC01918D828D98170C
:1004E00061F0A28DAE0FBF2FB11D5D968C91928DE4
:1004F0009F5F9F73928F90E008958FEF9FEF089515
:10050000FC01918D828D981731F0828DE80FF11DDD
:10051000858D90E008958FEF9FEF0895FC01918DF8
:10052000228D892F90E0805C9F4F821B91098F73F1
:100530009927089589EB92E00E948E0221E0892B91
:1005400009F420E0822F0895FC01A48DA80FB92F93
:10055000B11DA35ABF4F2C91848D90E001968F73EB
:100560009927848FA689B7892C93A089B1898C910A
:10057000837080648C93938D848D981306C0028859
:10058000F389E02D80818F7D80830895EF92FF9223
:100590000F931F93CF93DF93EC0181E0888F9B8DA6
:1005A0008C8D98131AC0E889F989808185FF15C060
:1005B0009FB7F894EE89FF896083E889F989808183
:1005C0008370806480839FBF81E090E0DF91CF9152
:1005D0001F910F91FF90EF900895F62E0B8D10E074
:1005E0000F5F1F4F0F731127E02E8C8D8E110CC0E3
:1005F0000FB607FCFACFE889F989808185FFF5CF2E
:10060000CE010E94A402F1CFEB8DEC0FFD2FF11D66
:10061000E35AFF4FF0829FB7F8940B8FEA89FB896A
:1006200080818062CFCFCF93DF93EC01888D8823C8
:10063000B9F0AA89BB89E889F9898C9185FD03C045
:10064000808186FD0DC00FB607FCF7CF8C9185FF2A
:10065000F2CF808185FFEDCFCE010E94A402E9CFC9
:10066000DF91CF91089581E08093AF0208950E94B9
:100670009A02882319F081E08093AF0280E090E035
:10068000892B49F080E090E0892B29F00E9400003E
:1006900081110E94000080E090E0892B49F080E009
:1006A00090E0892B29F00E94000081110E94000037
:1006B00080E090E0892B49F080E090E0892B29F0E0
:1006C0000E94000081110C94000008950895CF93BA
:1006D000DF93EC0188819981DC01ED91FC9101901F
:1006E000F081E02D19952A813B81820F931F9B8316
:1006F0008A83DF91CF910895CF93DF93EC018881B6
:100700009981DC01ED91FC910280F381E02D199536
:100710002A813B81820F931F9B838A83DF91CF9134
:1007200008958F929F92AF92BF92CF92DF92EF92F5
:10073000FF920F931F93CF93DF93CDB7DEB76697EA
:100740000FB6F894DEBF0FBECDBF6C018E01095EFF
:100750001F4F78018AE0882E912CA12CB12CCB015F
:10076000BA01A50194010E94E610942F852F605DC7
:10077000F80162938F01A901692F782F4115510566
:100780006105710561F7A7014E1B5F0BBF01C60133
:100790000E947C0366960FB6F894DEBF0FBECDBFF5
:1007A000DF91CF911F910F91FF90EF90DF90CF904D
:1007B000BF90AF909F908F90089580339CF08A33C4
:1007C00024F08F3524F08B3724F481E008958134B0
:1007D0004CF08B35D4F393ED980F81E09230B0F369
:1007E00080E008958B32B9F7F0CF0F931F93CF932A
:1007F000DF93EC018C85811140C009851A852FB7E4
:10080000F8948091B1029091B202A091B302B0919C
:10081000B4022FBFF80180879187A287B387D801E0
:10082000ED91FC910284F385E02DC801199597FFA5
:100830002AC02FB7F8948091B1029091B202A09192
:10084000B302B091B4022FBFF80140855185628593
:100850007385841B950BA60BB70B4481558166816C
:10086000778184179507A607B707C8F28FEF9FEF28
:1008700097FD80E08B8781E08C878B85DF91CF911E
:100880001F910F9108959927F3CF1F93CF93DF9373
:10089000EC01162F0E94F503811306C01C8681E02F
:1008A000DF91CF911F91089580E0FACFCF93DF932E
:1008B000EC01CE010E94F5038B303CF489304CF4FE
:1008C000882349F081E0888710C08D3011F0803294
:1008D000C9F71C86EECF888581110AC081E090E0BF
:1008E000C15BDF4F9983888380E0DF91CF910895CA
:1008F00082E090E0F5CF0895FC0124813581A901C3
:100900004F5F5F4F868197814817590748F482816E
:10091000938155834483FC01E20FF31F60830895A4
:100920000190F081E02D81E0808708959F92AF9241
:10093000BF92CF92DF92EF92FF920F931F93CF93CC
:10094000DF9300D01F921F92CDB7DEB78C010E94BB
:10095000F503D82ED8011C961C92F12CE12C60EFE7
:10096000C62EC8010E94F503F8011486D81609F4B2
:10097000BDC0811119C0F801E15BFF4F82E090E03A
:100980009183808380E00F900F900F900F900F90D5
:10099000DF91CF911F910F91FF90EF90DF90CF905B
:1009A000BF90AF909F9008958C3509F09DC0C8010D
:1009B0000E94F5038823F9F2EEE1F2E0853709F0B1
:1009C00087C0D8011C961C9254E0952EB12CA12C06
:1009D000C8010E94F503882371F281344CF48053DE
:1009E000803148F0F801E15BFF4F83E090E0C8CF31
:1009F0008F7D8753F5CF44E0AA0CBB1C4A95E1F7E5
:100A0000A82AF80114869A949110E2CFC501985D46
:100A10008115944020F4750123E0F222A2CFC50194
:100A20009C5D81159440A8F4B3E0BB22B701762FFA
:100A30006627770F770F6A297B2990E080E001967F
:100A4000603871058105910540F4C8010E947C045D
:100A500088CFB50190E080E0F3CF1982262F2F7365
:100A600020682A8326E096958795779567952A953D
:100A7000D1F76032710580F4606C6B835E01E4E055
:100A8000AE0EB11CD5016E915D01662309F469CFEC
:100A9000C8010E947C04F6CF262F2F7320682B8379
:100AA00086E0769567958A95E1F76031710538F4AF
:100AB000606E6C835E01F5E0AF0EB11CE3CF606841
:100AC0006C83CD825E0126E0A20EB11CDBCF329694
:100AD0009081992309F486CF8913F9CF81818823E6
:100AE00009F480CFF8011486682FAFCF0190F08110
:100AF000E02D8085882331F0F801E15BFF4F84E031
:100B000090E03ECF81E03FCFCF93DF93DC01EB015C
:100B1000EC81FD818A819B810896E817F90740F4F2
:100B200081E08887F0E0E0E0CF01DF91CF91089588
:100B30003897FD83EC833097B9F31296CD91DC9111
:100B40001397209791F0CF018C1B9D0B23E0959577
:100B500087952A95E1F78D831396FC93EE93129770
:100B60001582148217821682DFCF1196FC93EE93C2
:100B7000F3CFEF92FF920F931F93CF93DF937C01FC
:100B8000DC0112962D913C911397ED91FC91AB01F4
:100B9000420F531FEF01C60FD71FC217D307A0F490
:100BA000888181110BC0E901CF014C175D0751F01D
:100BB0000991DC011D91CD010117B9F381918111DA
:100BC000FDCFE8CF309751F4620F731FCB01019630
:100BD000F70193838283DB011C92F901CF01DF913E
:100BE000CF911F910F91FF90EF900895FC01258107
:100BF000222339F0F8E02F0290011124820F931F75
:100C0000089590E080E00895FC0101900020E9F74C
:100C10003197AF01481B590BBC0189EB92E00C9452
:100C20003002FB0101900020E9F73197AF01461B2C
:100C3000570B0C947C031F93CF93DF93EEE1F2E00C
:100C40001281112379F0329621816213F9CFEC01E0
:100C50006CE50E946703612FCE01DF91CF911F9158
:100C60000C9467036111F9CF6FE272E0DF91CF91CD
:100C70001F910C9411062F923F924F925F926F92A8
:100C80007F928F929F92AF92BF92CF92DF92EF921C
:100C9000FF920F931F93CF93DF93CDB7DEB76C977F
:100CA0000FB6F894DEBF0FBECDBF8C011B01DC0177
:100CB00014968C9114978F77863009F492C268F558
:100CC0008230A0F11296ED90FC901397CC90119683
:100CD000DC90843008F056C2A701B601C1010E9421
:100CE0007C03F101828193816C960FB6F894DEBF8C
:100CF0000FBECDBFDF91CF911F910F91FF90EF906D
:100D0000DF90CF90BF90AF909F908F907F906F902B
:100D10005F904F903F902F9008958C3069F160F470
:100D2000883009F459C28A3009F43FC266E372E0A0
:100D3000C1010E941106E5C1803209F4ECC1803482
:100D4000A9F76BE5C1010E946703F80100811181D9
:100D50000115110509F4DAC1B101C8010E943B0671
:100D6000C8010E94F6058C01892B09F4CFC16CE201
:100D7000C1010E946703ECCFF801C080D180E280FE
:100D8000F380A7019601C701B6010E94940F81115B
:100D9000CDCF20E030E0A901C701B6010E94940F39
:100DA000882379F0A7019601C701B6010E941111AD
:100DB0009B01AC01C701B6010E94940F882309F47E
:100DC000B5CF20E030E0A901C701B6010E94940F21
:100DD00087FF08C06DE2C1010E946703F7FAF09433
:100DE000F7F8F09420E836E948E15BE4C701B60182
:100DF0000E94AC1187FD81C074E1A72EB12C00E2E6
:100E000010E0188E1F8AF501EA59FD4F25913591A2
:100E100045915491C701B6010E94AC1187FD13C0E2
:100E2000F501E258FD4F2591359145915491C70147
:100E3000B6010E94FA0F6B017C012F89388D200FBB
:100E4000311F388F2F8B1595079534E0A31AB10801
:100E50008CEFA8168FEFB806B1F655245A9420E00F
:100E600030E0A901C701B6010E94AC1118160CF0C0
:100E70004BC02CEA35EC47E257E3C701B6010E94AC
:100E8000940F18160CF440C0A52DB4E0AB02C001BD
:100E90001124B12CA12CFC01E85BFE4F3F019C0109
:100EA0002A593D4F49013FEF531671F1F301EA0D05
:100EB000FB1D2591359145915491C701B6010E94C2
:100EC000940F87FF13C0F401EA0DFB1D25913591A6
:100ED00045915491C701B6010E94FA0F6B017C0144
:100EE0008F89988D801B910B988F8F8B1595079507
:100EF0005A9494E0A91AB108D6CF00E210E055E068
:100F0000552E188E1F8AABCFC701B6010E947D11E6
:100F10004B015C012B013C0106E080E492E4AFE070
:100F2000B0E0898F9A8FAB8FBC8F102F01509AE061
:100F30004916510461047104C8F0698D7A8D8B8D56
:100F40009C8D2AE030E040E050E00E94E610298FBE
:100F50003A8F4B8F5C8FC301B2012AE030E040E052
:100F600050E00E94E61029013A01DFCFC501B4012B
:100F70000E94990F9B01AC01C701B6010E9410119C
:100F80006B017C01698D7A8D8B8D9C8D0E94990FF0
:100F90009B01AC01C701B6010E94FA0F2B013C0175
:100FA0000E947D116B017C010E94990F9B01AC0195
:100FB000C301B2010E9410119B01AC010E941111EA
:100FC0000E947D11C60ED71EE81EF91E898D9A8DCE
:100FD000AB8DBC8DC816D906EA06FB06D8F09FEF8C
:100FE000891A990AA90AB90AAF89B88DAB2B39F1C8
:100FF000BAE08B169104A104B10408F1EF89F88DD1
:101000003196F88FEF8BC12CD12C7601812C912C4D
:10101000540183942AE0422E512C612C712CC7017B
:10102000B601A30192010E94E610672B682B692B81
:1010300051F4111644F469017A011150F0CFC12C1A
:10104000D12C7601E7CFB501A401C1010E94910323
:10105000112371F14E01F1E18F0E911C012F54010A
:101060009AE0492E512C612C712C015068F0C70177
:10107000B601A30192010E94E610605DD4016E9357
:101080004D0169017A01F1CF812F90E0BC0160959B
:101090007095F501E81BF90B31978EE280834427A8
:1010A0005527461B570B6A0D7B1DC1010E947C030F
:1010B000EF89F88DEF2B29F165E6C1010E946703E6
:1010C0000F89188D17FF07C06DE2C1010E946703E9
:1010D000119501951109FE0177969F018AE0E82E8E
:1010E000F12CC801B7010E94D210805D82938B0160
:1010F000672BB9F7A9014E1B5F0BBF01C1010E940D
:101100007C03D10112968D919C91EECD6DE5C101CC
:101110000E946703F6CF6BE7C1010E946703F801E5
:10112000008111810115110559F1D8011696CC9055
:1011300016971796DC9062E2C1010E946703760160
:10114000F70161917F01662321F0C1010E941B0616
:10115000F7CF62E2C1010E9467036AE3C1010E9406
:101160006703B101C8010E943B06C8010E94F60551
:101170008C01892B29F06CE2C1010E946703D2CF58
:101180006DE7C5CF62E2C1010E9467038601E00EF0
:10119000F11EE016F10639F0F80161918F01C101ED
:1011A0000E941B06F6CF62E2B2CFCD90DD90ED90AB
:1011B000FC90B701A601F7FE0BC06DE2C1010E94D1
:1011C000670344275527BA014C195D096E097F0949
:1011D000C1010E94910385CD4D915D916D917C91EE
:1011E000F7CF8C916BE372E0811102C060E472E092
:1011F000C1010E94110675CD0F931F93CF93DF930A
:10120000D0E0C0E06115710591F08B01FC01C08157
:10121000D181209761F06E817F81C8010E94B11158
:10122000892B29F0CE010E94F605EC01F2CFCE0108
:10123000DF91CF911F910F9108954F925F926F921E
:101240007F92BF92CF92DF92EF92FF920F931F9304
:10125000CF93DF93EC018B01E42E0E945604F82E0D
:10126000811110C0F12C8F2DDF91CF911F910F9123
:10127000FF90EF90DF90CF90BF907F906F905F9046
:101280004F900895CE010E94F503873209F42BC1D7
:101290000CF5823209F427C1CE010E94F503B82E65
:1012A0006E01FFE0CF0ED11CE12C36018B2D0E9488
:1012B000DD03882309F443C12FE3E21609F43FC19B
:1012C0001C86E394F601B1926F01CE010E94F503F2
:1012D000B82EECCF8B3509F44AC08B37E9F6F8010C
:1012E00084818078806284831182108213821282CA
:1012F000EE2009F447C01C86CE010E9456048823C4
:1013000009F4B0CF6DE7CE010E944504D82E8111BB
:10131000AACFCC24C394EA94E881F9818281938195
:101320009B838A838481958122813381821B930BE5
:101330009F838E831D821C82892B09F4C086CE0177
:101340000E94F503873209F45DC0823209F45AC065
:10135000CE010E94F503F82E0E94DD03811159C0D1
:10136000C15BDF4F83E090E09983888350C0F80130
:101370008481807880648483118210821382128237
:10138000E11007C0C15BDF4F85E090E0998388835F
:1013900069CF1C86CE010E945604882309F462CFCF
:1013A0006DE5CE010E94450481115DCFEA946D8503
:1013B0007E85C8010E948405009729F4C15BDF4F38
:1013C00084E090E0E3CF4E2DBC01CE010E941D09C8
:1013D000882309F447CFCE010E945604882309F4DC
:1013E00041CF6DE5CE010E94450481113CCF6CE2F6
:1013F000CE010E9445048111DACFC15BDF4F83E04B
:1014000090E0C4CFCE010E949604811119C0FD2C3A
:101410002ACF1C866F2DCE010E947C04CE010E9433
:10142000F503F82E0E94DD038111F3CFE881F981E5
:101430008085882329F0C15BDF4F84E090E094CF62
:10144000CE010E945604882311F36AE3CE010E9464
:101450004504882309F484CFEA81FB818C819D8136
:10146000E80FF91F10826C807D806A817B81C80142
:101470000E94FC08BC01892BA1F4B30188819981E9
:101480000E94B9053C016D857E85C8010E948405D6
:10149000FC01892B81F28481806884837782668253
:1014A000BF014E2DCE010E941D09882309F4AFCF44
:1014B000CE010E945604882309F4A9CF6DE7CE011E
:1014C0000E94450481110DC06CE2CE010E944504CA
:1014D000882309F445CFCE010E94560481111CCF08
:1014E00096CFD82E94CFE881F981828193819B8316
:1014F0008A838481958122813381821B930B9F8310
:101500008E831D821C82892B11F481E08087CE019D
:101510000E949604F82E882309F4A4CECC80DD80A6
:10152000B601888199810E94B905F801248120784B
:101530002560248391838083D382C28294CEFE016E
:10154000EE0DF11D17868F85843781F4F8018481B3
:1015500080788660848381E08083F4E0EF1609F46C
:1015600082CEC15BDF4F82E090E010CF863641F43F
:10157000F80184818078866084831082F5E0EECF64
:101580008E3621F424E0E212ECCF6DCE8B32D9F10D
:10159000F3018D32D1F5FE017096BF2C808190ED64
:1015A000980F9A3018F08E3209F027CF6F0160E063
:1015B00070E0CB01F6012191A0ED4A2E420E39E0F8
:1015C000341528F16A3949E97407840749E1940719
:1015D00040F5AAE0B0E09B01AC010E94B810512C8C
:1015E000712C612CA3019201209530954095509566
:1015F0002617370748075907A0F0640D751D861D8B
:10160000971D6F01D7CFFE017096B12CC7CF211166
:1016100008C0BB2071F161307105810550E8950764
:10162000A0F0E12CEAE04E2E512C612C712C6115BA
:101630007105F0E88F07910530F1A30192010E9436
:10164000E610CA01B901E394F2CFF80124812078B1
:101650002A6024839B01AC0188279927DC01821B27
:10166000930BA40BB50B80839183A283B383FB2CD4
:10167000FACDF80124812078286024836083718367
:1016800082839383F0CDD601F60121916F0130ED75
:10169000320F3A3010F4E394F6CF2E32F1F4FD011C
:1016A0003196DF0131962C9150EDD52ED20E29E0E6
:1016B0002D1598F06C3C3CEC73073CE083079105DA
:1016C00080F7AAE0B0E09B01AC010E94B8106D0D5C
:1016D000711D811D911DEA94E4CF2C912F7D25343D
:1016E00009F08CC011962C9111972D32D9F51296D4
:1016F0007F2CFD0130E020E0CE2C0E2C000CDD080C
:101700004AE0542EDF01619040ED460D4A3008F06A
:1017100043C0529EA001539E500D1124262D660CED
:10172000330B20533109240F351FA601420F531FDD
:10173000473251053CF3F80184817720D1F040E035
:1017400050E060E070E8B11003C040E050E0BA0142
:1017500080788C60F8018483408351836283738333
:10176000F72C81CD2B3219F01196712CC2CF129625
:10177000FCCF40E050E060E87FEFB11004C040E0F3
:1017800050E060E87FE780788C60F80184834083D4
:1017900051836283738367CD772019F0319521954A
:1017A00031094C91411129CEE901CE0DD11DE7FC43
:1017B000DA950E94990F1C161D061CF5E12CC0FF3E
:1017C0000CC024E0E29EF0011124EA59FD4F25915E
:1017D0003591459154910E94FA0FD595C795E394A0
:1017E000209769F7B1109058F801248120782C6077
:1017F0002483608371838283938335CD30E020E03E
:10180000D0CFD195C195D109E12C209759F3C0FFD4
:101810000CC044E0E49EF0011124E258FD4F2591F4
:101820003591459154910E94FA0FD595C795E3944F
:10183000ECCFEF92FF920F931F93CF93DF93EC01C6
:101840008C81982F9F7739F4807880628C831982FD
:1018500018821B821A828C8185FF1DC0611571055B
:10186000D1F07A018B01CE010E94FC08009761F44F
:10187000B701CE010E948405009731F0FC0124815C
:101880002F77248317830683DF91CF911F910F91C8
:10189000FF90EF90089590E080E0F6CFCF92DF9236
:1018A000EF92FF920F931F93CF93DF93CDB7DEB7E5
:1018B000C650D2400FB6F894DEBF0FBECDBFCE01EA
:1018C0000F969A8389839C838B838E010D5F1D4FB6
:1018D0001E830D8318870F8319861E868FB7F89491
:1018E000C090B102D090B202E090B302F090B40286
:1018F0008FBFAE014F5F5F4F66E472E0CE010A9684
:101900000E94190CFC01892B41F094819078986019
:101910009483C082D182E282F382AE014F5F5F4F37
:101920006BE472E0CE010A960E94190CFC01892B2F
:1019300081F02091AD023091AE02948190789A604E
:101940009483C901330FAA0BBB0B80839183A283BD
:10195000B38389EB92E0F801918380831382128232
:10196000B801CE010A960E943B0682E592E00E94F1
:1019700004061092AC02CA5FDD4F0FB6F894DEBFCA
:101980000FBECDBFDF91CF911F910F91FF90EF90D0
:10199000DF90CF9008950F931F93CF93DF93CDB730
:1019A000DEB7C356D2400FB6F894DEBF0FBECDBF30
:1019B000CE010F969A8389839C838B8383E092E088
:1019C0008C0F9D1F9E838D8398878F8319861E861B
:1019D00082509240C45ADD4F99838883CC55D240BF
:1019E00028E0FE01E45AFD4FDE01AC5ABD4F0190E4
:1019F0000D922A95E1F728E0FE01EC5AFD4FDE0139
:101A0000AD5FBD4F01900D922A95E1F7C55FDD4FA7
:101A10001882CB50D24029EB32E0C45FDD4F3983CE
:101A20002883CC50D240C15FDD4F1882CF50D240C6
:101A3000C05FDD4F99838883C051D240CE5ADD4FBD
:101A400019821882C255D2404AE0BE01665F7F4FBC
:101A50008E5F9D4F0E941D09CE5ADD4F088119816E
:101A6000C255D2400115110501F5C25FDD4F8881D5
:101A7000CE50D2408823C9F08E8583FF16C01092C5
:101A8000AF0203E010E085E592E00E940406000F3B
:101A9000111FF801E050FE4F808191810097C9F538
:101AA00082E592E00E94040608C01092AF02011580
:101AB000110549F78E8585FD0CC0CD59DD4F0FB658
:101AC000F894DEBF0FBECDBFDF91CF911F910F9174
:101AD00008956CE672E0CE010A960E94FC08009719
:101AE00061F3FC0184818F7741F36CE672E0CE01F3
:101AF0000A960E94FC08FC01892B71F194819F7762
:101B0000983009F148F4992339F19630B1F011E099
:101B100015C00E940406C4CF9A30A9F09C30B9F7D2
:101B200011E020E030E0A901608171818281938120
:101B30000E94940F811102C00FC01081612F87E0B5
:101B40000E947F01BACF11E080819181A281B3818F
:101B5000892B8A2B8B2B91F710E0F0CF1F920F92DD
:101B60000FB60F9211242F933F938F939F93AF93B0
:101B7000BF938091B1029091B202A091B302B09153
:101B8000B4023091B00223E0230F2D3758F50196AF
:101B9000A11DB11D2093B0028093B1029093B202B7
:101BA000A093B302B093B4028091B5029091B602B3
:101BB000A091B702B091B8020196A11DB11D80930A
:101BC000B5029093B602A093B702B093B802BF914A
:101BD000AF919F918F913F912F910F900FBE0F90DA
:101BE0001F90189526E8230F0296A11DB11DD2CF94
:101BF0001F920F920FB60F9211240BB60F922F93D4
:101C00003F934F935F936F937F938F939F93AF9384
:101C1000BF93EF93FF9389EB92E00E94A402FF91A0
:101C2000EF91BF91AF919F918F917F916F915F9154
:101C30004F913F912F910F900BBE0F900FBE0F90C1
:101C40001F9018951F920F920FB60F9211240BB68A
:101C50000F922F938F939F93EF93FF93E091C9027D
:101C6000F091CA028081E091CF02F091D00282FD12
:101C70001DC090818091D2028F5F8F732091D3021B
:101C8000821741F0E091D202F0E0E754FD4F958FCA
:101C90008093D202FF91EF919F918F912F910F909E
:101CA0000BBE0F900FBE0F901F9018958081F2CF42
:101CB000789484B5826084BD84B5816084BD85B527
:101CC000826085BD85B5816085BD80916E00816033
:101CD00080936E00109281008091810082608093D9
:101CE00081008091810081608093810080918000DB
:101CF0008160809380008091B10084608093B10006
:101D00008091B00081608093B000809191008260EA
:101D100080939100809191008160809391008091E7
:101D200090008160809390008091A10082608093F8
:101D3000A1008091A10081608093A1008091A0000A
:101D400081608093A00080912101826080932101B5
:101D50008091210181608093210180912001816027
:101D60008093200180917A00846080937A00809132
:101D70007A00826080937A0080917A0081608093FB
:101D80007A0080917A00806880937A001092C10076
:101D9000E091C902F091CA0282E08083E091C5021D
:101DA000F091C6021082E091C702F091C8028FEC58
:101DB00080831092D102E091CD02F091CE0286E0B4
:101DC0008083E091CB02F091CC028081806180839E
:101DD000E091CB02F091CC02808188608083E09119
:101DE000CB02F091CC02808180688083E091CB02AD
:101DF000F091CC0280818F7D8083E1EEF1E024912F
:101E0000EBE9F1E08491882399F090E0880F991F25
:101E1000FC01E05AFE4FA591B491FC01E658FE4F3B
:101E2000859194918FB7F894EC91E22BEC938FBF4E
:101E300060E087E00E947F01C0E48091AF028823C8
:101E400021F00E94CB0C0E944E0C80917B00877F7A
:101E500080937B00C0937C0080917A0080648093A3
:101E60007A0080917A0086FDFCCF90917800809175
:101E700079008927982789279093AE028093AD0235
:101E80000E940B024B015C018AE0C82ED12CE12C90
:101E9000F12C0E940B02681979098A099B09683E96
:101EA000734081059105A8F321E0C21AD108E10829
:101EB000F10888EE880E83E0981EA11CB11CC114A5
:101EC000D104E104F10429F70E943703B6CFE9EB0E
:101ED000F2E01382128288EE93E0A0E0B0E0848307
:101EE0009583A683B78380E192E09183808385EC1C
:101EF00090E09587848784EC90E09787868780ECD4
:101F000090E0918B808B81EC90E0938B828B82ECC4
:101F100090E0958B848B86EC90E0978B868B118E6E
:101F2000128E138E148E08950E94D60F08F481E04D
:101F30000895E89409C097FB3EF4909580957095BC
:101F400061957F4F8F4F9F4F9923A9F0F92F96E905
:101F5000BB279395F695879577956795B795F1117A
:101F6000F8CFFAF4BB0F11F460FF1BC06F5F7F4F17
:101F70008F4F9F4F16C0882311F096E911C0772329
:101F800021F09EE8872F762F05C0662371F096E832
:101F9000862F70E060E02AF09A95660F771F881F01
:101FA000DAF7880F9695879597F90895990F0008A5
:101FB000550FAA0BE0E8FEEF16161706E807F9071B
:101FC000C0F012161306E407F50798F0621B730BB6
:101FD000840B950B39F40A2661F0232B242B252B37
:101FE00021F408950A2609F4A140A6958FEF811DDA
:101FF000811D08950E940D100C947E100E94701097
:1020000038F00E94771020F0952311F00C9467109F
:102010000C946D1011240C94B2100E948F1070F368
:10202000959FC1F3950F50E0551F629FF001729F7D
:10203000BB27F00DB11D639FAA27F00DB11DAA1F8C
:10204000649F6627B00DA11D661F829F2227B00DD9
:10205000A11D621F739FB00DA11D621F839FA00D64
:10206000611D221F749F3327A00D611D231F849FB4
:10207000600D211D822F762F6A2F11249F5750400B
:102080009AF0F1F088234AF0EE0FFF1FBB1F661F86
:10209000771F881F91505040A9F79E3F510580F04F
:1020A0000C9467100C94B2105F3FE4F3983ED4F3A5
:1020B000869577956795B795F795E7959F5FC1F7F3
:1020C000FE2B880F911D9695879597F9089597F99E
:1020D0009F6780E870E060E008959FEF80EC0895CE
:1020E00000240A94161617061806090608950024F7
:1020F0000A9412161306140605060895092E039471
:10210000000C11F4882352F0BB0F40F4BF2B11F4E4
:1021100060FF04C06F5F7F4F8F4F9F4F089557FD43
:102120009058440F551F59F05F3F71F04795880F45
:1021300097FB991F61F09F3F79F0879508951216DC
:1021400013061406551FF2CF4695F1DF08C0161688
:1021500017061806991FF1CF869571056105089439
:102160000895E894BB2766277727CB0197F9089550
:102170000E94C310A59F900DB49F900DA49F800D49
:10218000911D11240895A29FB001B39FC001A39F88
:10219000700D811D1124911DB29F700D811D1124A0
:1021A000911D0895AA1BBB1B51E107C0AA1FBB1FAD
:1021B000A617B70710F0A61BB70B881F991F5A95D3
:1021C000A9F780959095BC01CD010895A1E21A2E42
:1021D000AA1BBB1BFD010DC0AA1FBB1FEE1FFF1FCB
:1021E000A217B307E407F50720F0A21BB30BE40B1B
:1021F000F50B661F771F881F991F1A9469F7609562
:102200007095809590959B01AC01BD01CF0108951B
:10221000EE0FFF1F881F8BBF0790F691E02D1994DA
:102220005058BB27AA270E9428110C947E100E94A8
:10223000701038F00E94771020F039F49F3F19F4A5
:1022400026F40C946D100EF4E095E7FB0C946710E7
:10225000E92F0E948F1058F3BA176207730784079B
:10226000950720F079F4A6F50C94B1100EF4E095E2
:102270000B2EBA2FA02D0B01B90190010C01CA0140
:10228000A0011124FF27591B99F0593F50F4503EEB
:1022900068F11A16F040A22F232F342F4427585FDD
:1022A000F3CF469537952795A795F0405395C9F7F5
:1022B0007EF41F16BA0B620B730B840BBAF09150AD
:1022C000A1F0FF0FBB1F661F771F881FC2F70EC04C
:1022D000BA0F621F731F841F48F48795779567951F
:1022E000B795F7959E3F08F0B0CF9395880F08F00B
:1022F0009927EE0F9795879508950E94971088F07B
:102300009F5798F0B92F9927B751B0F0E1F0660FB9
:10231000771F881F991F1AF0BA95C9F714C0B130FA
:1023200091F00E94B110B1E008950C94B110672FA4
:10233000782F8827B85F39F0B93FCCF38695779529
:102340006795B395D9F73EF4909580957095619512
:102350007F4F8F4F9F4F08950E94D60F08F48FEF45
:102360000895FB01DC018D91019080190110D9F3D2
:08237000990B0895F894FFCFCA
:10237800700273027E028E029B02A402000000001B
:10238800C60230025D0213038E026C0280022F2FF8
:1023980022225C5C6208660C6E0A720D7409005C8D
:1023A8007530303030006E756C6C00747275650075
:1023B80066616C73650074696D6500616E616C6F50
:1023C80067000D0A00646573657269616C697A65F6
:1023D8002829206661696C65643A20006C65640090
:1023E8004F6B00456D707479496E70757400496E55
:1023F800636F6D706C657465496E70757400496EB5
:1024080076616C6964496E707574004E6F4D656DC8
:0C2418006F727900546F6F4465657000AE
:00000001FF
